{
  "_format": "hh-sol-artifact-1",
  "contractName": "zNFT",
  "sourceName": "contracts/Nifties.sol",
  "abi": [
    {
      "inputs": [],
      "stateMutability": "payable",
      "type": "constructor"
    },
    {
      "anonymous": false,
      "inputs": [
        {
          "indexed": true,
          "internalType": "address",
          "name": "owner",
          "type": "address"
        },
        {
          "indexed": true,
          "internalType": "address",
          "name": "approved",
          "type": "address"
        },
        {
          "indexed": true,
          "internalType": "uint256",
          "name": "tokenId",
          "type": "uint256"
        }
      ],
      "name": "Approval",
      "type": "event"
    },
    {
      "anonymous": false,
      "inputs": [
        {
          "indexed": true,
          "internalType": "address",
          "name": "owner",
          "type": "address"
        },
        {
          "indexed": true,
          "internalType": "address",
          "name": "operator",
          "type": "address"
        },
        {
          "indexed": false,
          "internalType": "bool",
          "name": "approved",
          "type": "bool"
        }
      ],
      "name": "ApprovalForAll",
      "type": "event"
    },
    {
      "anonymous": false,
      "inputs": [
        {
          "indexed": false,
          "internalType": "address",
          "name": "sender",
          "type": "address"
        },
        {
          "indexed": false,
          "internalType": "uint256",
          "name": "tokenId",
          "type": "uint256"
        },
        {
          "indexed": false,
          "internalType": "string",
          "name": "tokenURI",
          "type": "string"
        }
      ],
      "name": "NewNFT",
      "type": "event"
    },
    {
      "anonymous": false,
      "inputs": [
        {
          "indexed": true,
          "internalType": "address",
          "name": "from",
          "type": "address"
        },
        {
          "indexed": true,
          "internalType": "address",
          "name": "to",
          "type": "address"
        },
        {
          "indexed": true,
          "internalType": "uint256",
          "name": "tokenId",
          "type": "uint256"
        }
      ],
      "name": "Transfer",
      "type": "event"
    },
    {
      "inputs": [
        {
          "internalType": "uint256",
          "name": "",
          "type": "uint256"
        }
      ],
      "name": "AllowedCrypto",
      "outputs": [
        {
          "internalType": "contract IERC20",
          "name": "paytoken",
          "type": "address"
        },
        {
          "internalType": "uint256",
          "name": "costvalue",
          "type": "uint256"
        }
      ],
      "stateMutability": "view",
      "type": "function"
    },
    {
      "inputs": [
        {
          "internalType": "contract IERC20",
          "name": "_paytoken",
          "type": "address"
        },
        {
          "internalType": "uint256",
          "name": "_costvalue",
          "type": "uint256"
        }
      ],
      "name": "addCurrency",
      "outputs": [],
      "stateMutability": "nonpayable",
      "type": "function"
    },
    {
      "inputs": [
        {
          "internalType": "uint256",
          "name": "",
          "type": "uint256"
        }
      ],
      "name": "anims",
      "outputs": [
        {
          "internalType": "string",
          "name": "",
          "type": "string"
        }
      ],
      "stateMutability": "view",
      "type": "function"
    },
    {
      "inputs": [
        {
          "internalType": "address",
          "name": "to",
          "type": "address"
        },
        {
          "internalType": "uint256",
          "name": "tokenId",
          "type": "uint256"
        }
      ],
      "name": "approve",
      "outputs": [],
      "stateMutability": "nonpayable",
      "type": "function"
    },
    {
      "inputs": [
        {
          "internalType": "uint256",
          "name": "",
          "type": "uint256"
        }
      ],
      "name": "artists",
      "outputs": [
        {
          "internalType": "string",
          "name": "",
          "type": "string"
        }
      ],
      "stateMutability": "view",
      "type": "function"
    },
    {
      "inputs": [
        {
          "internalType": "address",
          "name": "owner",
          "type": "address"
        }
      ],
      "name": "balanceOf",
      "outputs": [
        {
          "internalType": "uint256",
          "name": "",
          "type": "uint256"
        }
      ],
      "stateMutability": "view",
      "type": "function"
    },
    {
      "inputs": [
        {
          "internalType": "uint256",
          "name": "_salePrice",
          "type": "uint256"
        }
      ],
      "name": "calculateRoyalty",
      "outputs": [
        {
          "internalType": "uint256",
          "name": "",
          "type": "uint256"
        }
      ],
      "stateMutability": "view",
      "type": "function"
    },
    {
      "inputs": [
        {
          "internalType": "uint256",
          "name": "",
          "type": "uint256"
        }
      ],
      "name": "collections",
      "outputs": [
        {
          "internalType": "string",
          "name": "",
          "type": "string"
        }
      ],
      "stateMutability": "view",
      "type": "function"
    },
    {
      "inputs": [
        {
          "internalType": "uint256",
          "name": "",
          "type": "uint256"
        }
      ],
      "name": "commentor",
      "outputs": [
        {
          "internalType": "address",
          "name": "",
          "type": "address"
        }
      ],
      "stateMutability": "view",
      "type": "function"
    },
    {
      "inputs": [
        {
          "internalType": "uint256",
          "name": "",
          "type": "uint256"
        },
        {
          "internalType": "uint256",
          "name": "",
          "type": "uint256"
        }
      ],
      "name": "commentors",
      "outputs": [
        {
          "internalType": "string",
          "name": "",
          "type": "string"
        }
      ],
      "stateMutability": "view",
      "type": "function"
    },
    {
      "inputs": [
        {
          "internalType": "uint256",
          "name": "",
          "type": "uint256"
        }
      ],
      "name": "comments",
      "outputs": [
        {
          "internalType": "string",
          "name": "",
          "type": "string"
        }
      ],
      "stateMutability": "view",
      "type": "function"
    },
    {
      "inputs": [],
      "name": "contractURI",
      "outputs": [
        {
          "internalType": "string",
          "name": "",
          "type": "string"
        }
      ],
      "stateMutability": "view",
      "type": "function"
    },
    {
      "inputs": [
        {
          "internalType": "uint256",
          "name": "",
          "type": "uint256"
        }
      ],
      "name": "creators",
      "outputs": [
        {
          "internalType": "address",
          "name": "",
          "type": "address"
        }
      ],
      "stateMutability": "view",
      "type": "function"
    },
    {
      "inputs": [
        {
          "internalType": "uint256",
          "name": "",
          "type": "uint256"
        }
      ],
      "name": "descriptions",
      "outputs": [
        {
          "internalType": "string",
          "name": "",
          "type": "string"
        }
      ],
      "stateMutability": "view",
      "type": "function"
    },
    {
      "inputs": [
        {
          "internalType": "uint256",
          "name": "tokenId",
          "type": "uint256"
        }
      ],
      "name": "getApproved",
      "outputs": [
        {
          "internalType": "address",
          "name": "",
          "type": "address"
        }
      ],
      "stateMutability": "view",
      "type": "function"
    },
    {
      "inputs": [
        {
          "internalType": "uint256",
          "name": "",
          "type": "uint256"
        }
      ],
      "name": "images",
      "outputs": [
        {
          "internalType": "string",
          "name": "",
          "type": "string"
        }
      ],
      "stateMutability": "view",
      "type": "function"
    },
    {
      "inputs": [
        {
          "internalType": "address",
          "name": "owner",
          "type": "address"
        },
        {
          "internalType": "address",
          "name": "operator",
          "type": "address"
        }
      ],
      "name": "isApprovedForAll",
      "outputs": [
        {
          "internalType": "bool",
          "name": "",
          "type": "bool"
        }
      ],
      "stateMutability": "view",
      "type": "function"
    },
    {
      "inputs": [],
      "name": "isOwner",
      "outputs": [
        {
          "internalType": "bool",
          "name": "",
          "type": "bool"
        }
      ],
      "stateMutability": "view",
      "type": "function"
    },
    {
      "inputs": [
        {
          "internalType": "uint256",
          "name": "",
          "type": "uint256"
        }
      ],
      "name": "liker",
      "outputs": [
        {
          "internalType": "address",
          "name": "",
          "type": "address"
        }
      ],
      "stateMutability": "view",
      "type": "function"
    },
    {
      "inputs": [
        {
          "internalType": "uint256",
          "name": "",
          "type": "uint256"
        },
        {
          "internalType": "uint256",
          "name": "",
          "type": "uint256"
        }
      ],
      "name": "likers",
      "outputs": [
        {
          "internalType": "address",
          "name": "",
          "type": "address"
        }
      ],
      "stateMutability": "view",
      "type": "function"
    },
    {
      "inputs": [
        {
          "internalType": "uint256",
          "name": "",
          "type": "uint256"
        }
      ],
      "name": "likes",
      "outputs": [
        {
          "internalType": "uint256",
          "name": "",
          "type": "uint256"
        }
      ],
      "stateMutability": "view",
      "type": "function"
    },
    {
      "inputs": [
        {
          "internalType": "string",
          "name": "imageURI",
          "type": "string"
        },
        {
          "internalType": "string",
          "name": "title",
          "type": "string"
        },
        {
          "internalType": "string",
          "name": "description",
          "type": "string"
        },
        {
          "internalType": "string",
          "name": "artist",
          "type": "string"
        },
        {
          "internalType": "uint8",
          "name": "_pid",
          "type": "uint8"
        }
      ],
      "name": "mintItem",
      "outputs": [],
      "stateMutability": "payable",
      "type": "function"
    },
    {
      "inputs": [],
      "name": "name",
      "outputs": [
        {
          "internalType": "string",
          "name": "",
          "type": "string"
        }
      ],
      "stateMutability": "view",
      "type": "function"
    },
    {
      "inputs": [
        {
          "internalType": "uint256",
          "name": "nft",
          "type": "uint256"
        },
        {
          "internalType": "string",
          "name": "_artist",
          "type": "string"
        }
      ],
      "name": "newArtists",
      "outputs": [],
      "stateMutability": "payable",
      "type": "function"
    },
    {
      "inputs": [
        {
          "internalType": "uint256",
          "name": "nft",
          "type": "uint256"
        },
        {
          "internalType": "string",
          "name": "_description",
          "type": "string"
        }
      ],
      "name": "newDescriptions",
      "outputs": [],
      "stateMutability": "payable",
      "type": "function"
    },
    {
      "inputs": [
        {
          "internalType": "uint256",
          "name": "nft",
          "type": "uint256"
        },
        {
          "internalType": "string",
          "name": "_imageURI",
          "type": "string"
        }
      ],
      "name": "newImage",
      "outputs": [],
      "stateMutability": "payable",
      "type": "function"
    },
    {
      "inputs": [
        {
          "internalType": "uint256",
          "name": "nft",
          "type": "uint256"
        },
        {
          "internalType": "string",
          "name": "_title",
          "type": "string"
        }
      ],
      "name": "newTitles",
      "outputs": [],
      "stateMutability": "payable",
      "type": "function"
    },
    {
      "inputs": [],
      "name": "owner",
      "outputs": [
        {
          "internalType": "address",
          "name": "",
          "type": "address"
        }
      ],
      "stateMutability": "view",
      "type": "function"
    },
    {
      "inputs": [
        {
          "internalType": "uint256",
          "name": "tokenId",
          "type": "uint256"
        }
      ],
      "name": "ownerOf",
      "outputs": [
        {
          "internalType": "address",
          "name": "",
          "type": "address"
        }
      ],
      "stateMutability": "view",
      "type": "function"
    },
    {
      "inputs": [
        {
          "internalType": "bool",
          "name": "_state",
          "type": "bool"
        }
      ],
      "name": "pause",
      "outputs": [],
      "stateMutability": "nonpayable",
      "type": "function"
    },
    {
      "inputs": [],
      "name": "paused",
      "outputs": [
        {
          "internalType": "bool",
          "name": "",
          "type": "bool"
        }
      ],
      "stateMutability": "view",
      "type": "function"
    },
    {
      "inputs": [
        {
          "internalType": "uint256",
          "name": "_tokenId",
          "type": "uint256"
        },
        {
          "internalType": "uint256",
          "name": "_salePrice",
          "type": "uint256"
        }
      ],
      "name": "royaltyInfo",
      "outputs": [
        {
          "internalType": "address",
          "name": "",
          "type": "address"
        },
        {
          "internalType": "uint256",
          "name": "",
          "type": "uint256"
        }
      ],
      "stateMutability": "view",
      "type": "function"
    },
    {
      "inputs": [
        {
          "internalType": "address",
          "name": "from",
          "type": "address"
        },
        {
          "internalType": "address",
          "name": "to",
          "type": "address"
        },
        {
          "internalType": "uint256",
          "name": "tokenId",
          "type": "uint256"
        }
      ],
      "name": "safeTransferFrom",
      "outputs": [],
      "stateMutability": "nonpayable",
      "type": "function"
    },
    {
      "inputs": [
        {
          "internalType": "address",
          "name": "from",
          "type": "address"
        },
        {
          "internalType": "address",
          "name": "to",
          "type": "address"
        },
        {
          "internalType": "uint256",
          "name": "tokenId",
          "type": "uint256"
        },
        {
          "internalType": "bytes",
          "name": "data",
          "type": "bytes"
        }
      ],
      "name": "safeTransferFrom",
      "outputs": [],
      "stateMutability": "nonpayable",
      "type": "function"
    },
    {
      "inputs": [
        {
          "internalType": "uint256",
          "name": "nft",
          "type": "uint256"
        },
        {
          "internalType": "string",
          "name": "_animURI",
          "type": "string"
        }
      ],
      "name": "setAnim",
      "outputs": [],
      "stateMutability": "payable",
      "type": "function"
    },
    {
      "inputs": [
        {
          "internalType": "address",
          "name": "operator",
          "type": "address"
        },
        {
          "internalType": "bool",
          "name": "approved",
          "type": "bool"
        }
      ],
      "name": "setApprovalForAll",
      "outputs": [],
      "stateMutability": "nonpayable",
      "type": "function"
    },
    {
      "inputs": [
        {
          "internalType": "uint256",
          "name": "tokenid",
          "type": "uint256"
        },
        {
          "internalType": "string",
          "name": "_collection",
          "type": "string"
        }
      ],
      "name": "setCollections",
      "outputs": [],
      "stateMutability": "payable",
      "type": "function"
    },
    {
      "inputs": [
        {
          "internalType": "uint256",
          "name": "tokenid",
          "type": "uint256"
        },
        {
          "internalType": "string",
          "name": "comment",
          "type": "string"
        }
      ],
      "name": "setComments",
      "outputs": [],
      "stateMutability": "payable",
      "type": "function"
    },
    {
      "inputs": [
        {
          "internalType": "uint256",
          "name": "nft",
          "type": "uint256"
        },
        {
          "internalType": "address payable",
          "name": "_creator",
          "type": "address"
        },
        {
          "internalType": "uint256",
          "name": "amount",
          "type": "uint256"
        },
        {
          "internalType": "uint8",
          "name": "_pid",
          "type": "uint8"
        }
      ],
      "name": "setLikes",
      "outputs": [],
      "stateMutability": "payable",
      "type": "function"
    },
    {
      "inputs": [
        {
          "internalType": "address",
          "name": "newOwner",
          "type": "address"
        }
      ],
      "name": "setOwner",
      "outputs": [],
      "stateMutability": "nonpayable",
      "type": "function"
    },
    {
      "inputs": [
        {
          "internalType": "string",
          "name": "_xurl",
          "type": "string"
        },
        {
          "internalType": "string",
          "name": "_projectimage",
          "type": "string"
        },
        {
          "internalType": "string",
          "name": "_projectdescription",
          "type": "string"
        }
      ],
      "name": "setProjectInfo",
      "outputs": [],
      "stateMutability": "nonpayable",
      "type": "function"
    },
    {
      "inputs": [
        {
          "internalType": "address",
          "name": "_receiver",
          "type": "address"
        },
        {
          "internalType": "uint96",
          "name": "_royaltyFeesInBips",
          "type": "uint96"
        }
      ],
      "name": "setRoyaltyInfo",
      "outputs": [],
      "stateMutability": "nonpayable",
      "type": "function"
    },
    {
      "inputs": [
        {
          "internalType": "bytes4",
          "name": "interfaceId",
          "type": "bytes4"
        }
      ],
      "name": "supportsInterface",
      "outputs": [
        {
          "internalType": "bool",
          "name": "",
          "type": "bool"
        }
      ],
      "stateMutability": "view",
      "type": "function"
    },
    {
      "inputs": [],
      "name": "symbol",
      "outputs": [
        {
          "internalType": "string",
          "name": "",
          "type": "string"
        }
      ],
      "stateMutability": "view",
      "type": "function"
    },
    {
      "inputs": [
        {
          "internalType": "uint256",
          "name": "",
          "type": "uint256"
        }
      ],
      "name": "titles",
      "outputs": [
        {
          "internalType": "string",
          "name": "",
          "type": "string"
        }
      ],
      "stateMutability": "view",
      "type": "function"
    },
    {
      "inputs": [
        {
          "internalType": "uint256",
          "name": "tokenId",
          "type": "uint256"
        }
      ],
      "name": "tokenURI",
      "outputs": [
        {
          "internalType": "string",
          "name": "",
          "type": "string"
        }
      ],
      "stateMutability": "view",
      "type": "function"
    },
    {
      "inputs": [
        {
          "internalType": "address",
          "name": "from",
          "type": "address"
        },
        {
          "internalType": "address",
          "name": "to",
          "type": "address"
        },
        {
          "internalType": "uint256",
          "name": "tokenId",
          "type": "uint256"
        }
      ],
      "name": "transferFrom",
      "outputs": [],
      "stateMutability": "nonpayable",
      "type": "function"
    },
    {
      "inputs": [],
      "name": "withdraw",
      "outputs": [],
      "stateMutability": "nonpayable",
      "type": "function"
    },
    {
      "inputs": [
        {
          "internalType": "uint256",
          "name": "_pid",
          "type": "uint256"
        }
      ],
      "name": "withdrawTokens",
      "outputs": [],
      "stateMutability": "payable",
      "type": "function"
    }
  ],
  "bytecode": "0x60806040526103e8600860146101000a8154816bffffffffffffffffffffffff02191690836bffffffffffffffffffffffff1602179055506000600b60006101000a81548160ff0219169083151502179055506040518060400160405280601481526020017f68747470733a2f2f7a6f6f63696574792e78797a000000000000000000000000815250600c90805190602001906200009f92919062000255565b506040518060400160405280600881526020017f5a6f6f6369657479000000000000000000000000000000000000000000000000815250600d9080519060200190620000ed92919062000255565b5060405180608001604052806059815260200162005fa560599139600e90805190602001906200011f92919062000255565b506040518060400160405280601481526020017f7a4e69667469657320696e205a6f6f6369657479000000000000000000000000815250600f90805190602001906200016d92919062000255565b506040518060400160405280600881526020017f7a4e6966746965730000000000000000000000000000000000000000000000008152506040518060400160405280600481526020017f7a4e4654000000000000000000000000000000000000000000000000000000008152508160009080519060200190620001f292919062000255565b5080600190805190602001906200020b92919062000255565b50505033600860006101000a81548173ffffffffffffffffffffffffffffffffffffffff021916908373ffffffffffffffffffffffffffffffffffffffff1602179055506200036a565b828054620002639062000334565b90600052602060002090601f016020900481019282620002875760008555620002d3565b82601f10620002a257805160ff1916838001178555620002d3565b82800160010185558215620002d3579182015b82811115620002d2578251825591602001919060010190620002b5565b5b509050620002e29190620002e6565b5090565b5b8082111562000301576000816000905550600101620002e7565b5090565b7f4e487b7100000000000000000000000000000000000000000000000000000000600052602260045260246000fd5b600060028204905060018216806200034d57607f821691505b6020821081141562000364576200036362000305565b5b50919050565b615c2b806200037a6000396000f3fe6080604052600436106102ae5760003560e01c80636d5a386111610175578063b3ae289a116100dc578063e6f859e711610095578063ea0c13361161006f578063ea0c133614610aff578063f2577e6c14610b28578063f6aa993514610b65578063fdbda0ec14610b81576102ae565b8063e6f859e714610a5a578063e8a3d48514610a97578063e985e9c514610ac2576102ae565b8063b3ae289a14610921578063b88d4fde1461095e578063bb6fb06114610987578063c87b56dd146109a3578063cd53d08e146109e0578063cd7e10c114610a1d576102ae565b80638ebb4c151161012e5780638ebb4c151461080c5780638f32d59b1461084957806395d89b4114610874578063a22cb4651461089f578063a2e69613146108c8578063acd6a91314610905576102ae565b80636d5a3861146106d157806370a082311461070e5780637e9dffe61461074b57806384856482146107885780638cbc6327146107c55780638da5cb5b146107e1576102ae565b806326c91cad1161021957806342842e0e116101d257806342842e0e146105be57806346ec8beb146105e7578063573f5066146106035780635c975abb146106405780636352211e1461066b578063690e4fc3146106a8576102ae565b806326c91cad146104b65780632a55205a146104f45780632cda1bf714610532578063315a095d1461056f5780633ccfd60b1461058b5780633fa37a8d146105a2576102ae565b8063081812fc1161026b578063081812fc146103c6578063095ea7b31461040357806312182f841461042c57806313af403514610448578063200bd1501461047157806323b872dd1461048d576102ae565b806301a6c897146102b357806301ffc9a7146102cf57806302329a291461030c578063025360f81461033557806302fa7c471461037257806306fdde031461039b575b600080fd5b6102cd60048036038101906102c89190613df4565b610bbe565b005b3480156102db57600080fd5b506102f660048036038101906102f19190613ea8565b610c55565b6040516103039190613ef0565b60405180910390f35b34801561031857600080fd5b50610333600480360381019061032e9190613f37565b610c97565b005b34801561034157600080fd5b5061035c60048036038101906103579190613f64565b610cc5565b6040516103699190614019565b60405180910390f35b34801561037e57600080fd5b50610399600480360381019061039491906140dd565b610d65565b005b3480156103a757600080fd5b506103b0610dec565b6040516103bd9190614019565b60405180910390f35b3480156103d257600080fd5b506103ed60048036038101906103e89190613f64565b610e7e565b6040516103fa919061412c565b60405180910390f35b34801561040f57600080fd5b5061042a60048036038101906104259190614147565b610ec4565b005b61044660048036038101906104419190613df4565b610fdc565b005b34801561045457600080fd5b5061046f600480360381019061046a9190614187565b611073565b005b61048b60048036038101906104869190613df4565b6110c8565b005b34801561049957600080fd5b506104b460048036038101906104af91906141b4565b61115f565b005b3480156104c257600080fd5b506104dd60048036038101906104d89190613f64565b6111bf565b6040516104eb929190614275565b60405180910390f35b34801561050057600080fd5b5061051b6004803603810190610516919061429e565b611213565b6040516105299291906142de565b60405180910390f35b34801561053e57600080fd5b5061055960048036038101906105549190613f64565b61124d565b6040516105669190614019565b60405180910390f35b61058960048036038101906105849190613f64565b6112ed565b005b34801561059757600080fd5b506105a061144a565b005b6105bc60048036038101906105b7919061437e565b61150a565b005b3480156105ca57600080fd5b506105e560048036038101906105e091906141b4565b611891565b005b61060160048036038101906105fc9190613df4565b6118b1565b005b34801561060f57600080fd5b5061062a60048036038101906106259190613f64565b611948565b604051610637919061412c565b60405180910390f35b34801561064c57600080fd5b5061065561197b565b6040516106629190613ef0565b60405180910390f35b34801561067757600080fd5b50610692600480360381019061068d9190613f64565b61198e565b60405161069f919061412c565b60405180910390f35b3480156106b457600080fd5b506106cf60048036038101906106ca9190614423565b611a40565b005b3480156106dd57600080fd5b506106f860048036038101906106f3919061429e565b611afe565b604051610705919061412c565b60405180910390f35b34801561071a57600080fd5b5061073560048036038101906107309190614187565b611b4c565b6040516107429190614463565b60405180910390f35b34801561075757600080fd5b50610772600480360381019061076d9190613f64565b611c04565b60405161077f9190614463565b60405180910390f35b34801561079457600080fd5b506107af60048036038101906107aa9190613f64565b611c1c565b6040516107bc9190614019565b60405180910390f35b6107df60048036038101906107da9190613df4565b611cbc565b005b3480156107ed57600080fd5b506107f6611e2a565b604051610803919061412c565b60405180910390f35b34801561081857600080fd5b50610833600480360381019061082e9190613f64565b611e50565b6040516108409190614019565b60405180910390f35b34801561085557600080fd5b5061085e611ef0565b60405161086b9190613ef0565b60405180910390f35b34801561088057600080fd5b50610889611f48565b6040516108969190614019565b60405180910390f35b3480156108ab57600080fd5b506108c660048036038101906108c1919061447e565b611fda565b005b3480156108d457600080fd5b506108ef60048036038101906108ea9190613f64565b611ff0565b6040516108fc9190614463565b60405180910390f35b61091f600480360381019061091a9190613df4565b61203a565b005b34801561092d57600080fd5b506109486004803603810190610943919061429e565b6120d1565b6040516109559190614019565b60405180910390f35b34801561096a57600080fd5b506109856004803603810190610980919061455f565b61218a565b005b6109a1600480360381019061099c91906145e2565b6121ec565b005b3480156109af57600080fd5b506109ca60048036038101906109c59190613f64565b6124dc565b6040516109d79190614019565b60405180910390f35b3480156109ec57600080fd5b50610a076004803603810190610a029190613f64565b6124ee565b604051610a14919061412c565b60405180910390f35b348015610a2957600080fd5b50610a446004803603810190610a3f9190613f64565b612521565b604051610a519190614019565b60405180910390f35b348015610a6657600080fd5b50610a816004803603810190610a7c9190613f64565b6125c1565b604051610a8e9190614019565b60405180910390f35b348015610aa357600080fd5b50610aac612661565b604051610ab99190614019565b60405180910390f35b348015610ace57600080fd5b50610ae96004803603810190610ae491906146cd565b612717565b604051610af69190613ef0565b60405180910390f35b348015610b0b57600080fd5b50610b266004803603810190610b21919061470d565b6127ab565b005b348015610b3457600080fd5b50610b4f6004803603810190610b4a9190613f64565b612806565b604051610b5c919061412c565b60405180910390f35b610b7f6004803603810190610b7a9190613df4565b612839565b005b348015610b8d57600080fd5b50610ba86004803603810190610ba39190613f64565b6128d0565b604051610bb59190614019565b60405180910390f35b3373ffffffffffffffffffffffffffffffffffffffff166010600084815260200190815260200160002060009054906101000a900473ffffffffffffffffffffffffffffffffffffffff1673ffffffffffffffffffffffffffffffffffffffff1614610c2957600080fd5b80601360008481526020019081526020016000209080519060200190610c50929190613bc1565b505050565b6000632a55205a60e01b827bffffffffffffffffffffffffffffffffffffffffffffffffffffffff19161480610c905750610c8f82612970565b5b9050919050565b610c9f611ef0565b610ca857600080fd5b80600b60006101000a81548160ff02191690831515021790555050565b60156020528060005260406000206000915090508054610ce4906147e3565b80601f0160208091040260200160405190810160405280929190818152602001828054610d10906147e3565b8015610d5d5780601f10610d3257610100808354040283529160200191610d5d565b820191906000526020600020905b815481529060010190602001808311610d4057829003601f168201915b505050505081565b610d6d611ef0565b610d7657600080fd5b81600960006101000a81548173ffffffffffffffffffffffffffffffffffffffff021916908373ffffffffffffffffffffffffffffffffffffffff16021790555080600860146101000a8154816bffffffffffffffffffffffff02191690836bffffffffffffffffffffffff1602179055505050565b606060008054610dfb906147e3565b80601f0160208091040260200160405190810160405280929190818152602001828054610e27906147e3565b8015610e745780601f10610e4957610100808354040283529160200191610e74565b820191906000526020600020905b815481529060010190602001808311610e5757829003601f168201915b5050505050905090565b6000610e8982612a52565b6004600083815260200190815260200160002060009054906101000a900473ffffffffffffffffffffffffffffffffffffffff169050919050565b6000610ecf8261198e565b90508073ffffffffffffffffffffffffffffffffffffffff168373ffffffffffffffffffffffffffffffffffffffff161415610f40576040517f08c379a0000000000000000000000000000000000000000000000000000000008152600401610f3790614887565b60405180910390fd5b8073ffffffffffffffffffffffffffffffffffffffff16610f5f612a9d565b73ffffffffffffffffffffffffffffffffffffffff161480610f8e5750610f8d81610f88612a9d565b612717565b5b610fcd576040517f08c379a0000000000000000000000000000000000000000000000000000000008152600401610fc490614919565b60405180910390fd5b610fd78383612aa5565b505050565b3373ffffffffffffffffffffffffffffffffffffffff166010600084815260200190815260200160002060009054906101000a900473ffffffffffffffffffffffffffffffffffffffff1673ffffffffffffffffffffffffffffffffffffffff161461104757600080fd5b8060146000848152602001908152602001600020908051906020019061106e929190613bc1565b505050565b61107b611ef0565b61108457600080fd5b80600860006101000a81548173ffffffffffffffffffffffffffffffffffffffff021916908373ffffffffffffffffffffffffffffffffffffffff16021790555050565b3373ffffffffffffffffffffffffffffffffffffffff166010600084815260200190815260200160002060009054906101000a900473ffffffffffffffffffffffffffffffffffffffff1673ffffffffffffffffffffffffffffffffffffffff161461113357600080fd5b8060126000848152602001908152602001600020908051906020019061115a929190613bc1565b505050565b61117061116a612a9d565b82612b5e565b6111af576040517f08c379a00000000000000000000000000000000000000000000000000000000081526004016111a6906149ab565b60405180910390fd5b6111ba838383612bf3565b505050565b600a81815481106111cf57600080fd5b90600052602060002090600202016000915090508060000160009054906101000a900473ffffffffffffffffffffffffffffffffffffffff16908060010154905082565b600080600960009054906101000a900473ffffffffffffffffffffffffffffffffffffffff1661124284611ff0565b915091509250929050565b6012602052806000526040600020600091509050805461126c906147e3565b80601f0160208091040260200160405190810160405280929190818152602001828054611298906147e3565b80156112e55780601f106112ba576101008083540402835291602001916112e5565b820191906000526020600020905b8154815290600101906020018083116112c857829003601f168201915b505050505081565b6112f5611ef0565b6112fe57600080fd5b6000600a8281548110611314576113136149cb565b5b9060005260206000209060020201905060008160000160009054906101000a900473ffffffffffffffffffffffffffffffffffffffff1690508073ffffffffffffffffffffffffffffffffffffffff1663a9059cbb338373ffffffffffffffffffffffffffffffffffffffff166370a08231306040518263ffffffff1660e01b81526004016113a3919061412c565b602060405180830381865afa1580156113c0573d6000803e3d6000fd5b505050506040513d601f19601f820116820180604052508101906113e49190614a0f565b6040518363ffffffff1660e01b81526004016114019291906142de565b6020604051808303816000875af1158015611420573d6000803e3d6000fd5b505050506040513d601f19601f820116820180604052508101906114449190614a51565b50505050565b611452611ef0565b61145b57600080fd5b60003373ffffffffffffffffffffffffffffffffffffffff164760405161148190614aaf565b60006040518083038185875af1925050503d80600081146114be576040519150601f19603f3d011682016040523d82523d6000602084013e6114c3565b606091505b5050905080611507576040517f08c379a00000000000000000000000000000000000000000000000000000000081526004016114fe90614b10565b60405180910390fd5b50565b600073ffffffffffffffffffffffffffffffffffffffff166010600086815260200190815260200160002060009054906101000a900473ffffffffffffffffffffffffffffffffffffffff1673ffffffffffffffffffffffffffffffffffffffff1614156115ad576040517f08c379a00000000000000000000000000000000000000000000000000000000081526004016115a490614b7c565b60405180910390fd5b8273ffffffffffffffffffffffffffffffffffffffff166010600086815260200190815260200160002060009054906101000a900473ffffffffffffffffffffffffffffffffffffffff1673ffffffffffffffffffffffffffffffffffffffff161461161857600080fd5b6000600a8260ff1681548110611631576116306149cb565b5b9060005260206000209060020201905060008160000160009054906101000a900473ffffffffffffffffffffffffffffffffffffffff169050600082600101549050600860009054906101000a900473ffffffffffffffffffffffffffffffffffffffff1673ffffffffffffffffffffffffffffffffffffffff163373ffffffffffffffffffffffffffffffffffffffff161461170b5780341461170a576040517f08c379a000000000000000000000000000000000000000000000000000000000815260040161170190614c0e565b60405180910390fd5b5b8173ffffffffffffffffffffffffffffffffffffffff166323b872dd3330846040518463ffffffff1660e01b815260040161174893929190614c2e565b6020604051808303816000875af1158015611767573d6000803e3d6000fd5b505050506040513d601f19601f8201168201806040525081019061178b9190614a51565b508460116000898152602001908152602001600020546117ab9190614c94565b601160008981526020019081526020016000208190555033601b600089815260200190815260200160002060006101000a81548173ffffffffffffffffffffffffffffffffffffffff021916908373ffffffffffffffffffffffffffffffffffffffff160217905550601c6000888152602001908152602001600020339080600181540180825580915050600190039060005260206000200160009091909190916101000a81548173ffffffffffffffffffffffffffffffffffffffff021916908373ffffffffffffffffffffffffffffffffffffffff16021790555050505050505050565b6118ac8383836040518060200160405280600081525061218a565b505050565b3373ffffffffffffffffffffffffffffffffffffffff166010600084815260200190815260200160002060009054906101000a900473ffffffffffffffffffffffffffffffffffffffff1673ffffffffffffffffffffffffffffffffffffffff161461191c57600080fd5b80601560008481526020019081526020016000209080519060200190611943929190613bc1565b505050565b60196020528060005260406000206000915054906101000a900473ffffffffffffffffffffffffffffffffffffffff1681565b600b60009054906101000a900460ff1681565b6000806002600084815260200190815260200160002060009054906101000a900473ffffffffffffffffffffffffffffffffffffffff169050600073ffffffffffffffffffffffffffffffffffffffff168173ffffffffffffffffffffffffffffffffffffffff161415611a37576040517f08c379a0000000000000000000000000000000000000000000000000000000008152600401611a2e90614d36565b60405180910390fd5b80915050919050565b611a48611ef0565b611a5157600080fd5b600a60405180604001604052808473ffffffffffffffffffffffffffffffffffffffff16815260200183815250908060018154018082558091505060019003906000526020600020906002020160009091909190915060008201518160000160006101000a81548173ffffffffffffffffffffffffffffffffffffffff021916908373ffffffffffffffffffffffffffffffffffffffff1602179055506020820151816001015550505050565b601c6020528160005260406000208181548110611b1a57600080fd5b906000526020600020016000915091509054906101000a900473ffffffffffffffffffffffffffffffffffffffff1681565b60008073ffffffffffffffffffffffffffffffffffffffff168273ffffffffffffffffffffffffffffffffffffffff161415611bbd576040517f08c379a0000000000000000000000000000000000000000000000000000000008152600401611bb490614dc8565b60405180910390fd5b600360008373ffffffffffffffffffffffffffffffffffffffff1673ffffffffffffffffffffffffffffffffffffffff168152602001908152602001600020549050919050565b60116020528060005260406000206000915090505481565b60186020528060005260406000206000915090508054611c3b906147e3565b80601f0160208091040260200160405190810160405280929190818152602001828054611c67906147e3565b8015611cb45780601f10611c8957610100808354040283529160200191611cb4565b820191906000526020600020905b815481529060010190602001808311611c9757829003601f168201915b505050505081565b600073ffffffffffffffffffffffffffffffffffffffff166010600084815260200190815260200160002060009054906101000a900473ffffffffffffffffffffffffffffffffffffffff1673ffffffffffffffffffffffffffffffffffffffff161415611d5f576040517f08c379a0000000000000000000000000000000000000000000000000000000008152600401611d5690614b7c565b60405180910390fd5b80601660008481526020019081526020016000209080519060200190611d86929190613bc1565b50336019600084815260200190815260200160002060006101000a81548173ffffffffffffffffffffffffffffffffffffffff021916908373ffffffffffffffffffffffffffffffffffffffff160217905550601a600083815260200190815260200160002081908060018154018082558091505060019003906000526020600020016000909190919091509080519060200190611e25929190613bc1565b505050565b600860009054906101000a900473ffffffffffffffffffffffffffffffffffffffff1681565b60166020528060005260406000206000915090508054611e6f906147e3565b80601f0160208091040260200160405190810160405280929190818152602001828054611e9b906147e3565b8015611ee85780601f10611ebd57610100808354040283529160200191611ee8565b820191906000526020600020905b815481529060010190602001808311611ecb57829003601f168201915b505050505081565b6000600860009054906101000a900473ffffffffffffffffffffffffffffffffffffffff1673ffffffffffffffffffffffffffffffffffffffff163373ffffffffffffffffffffffffffffffffffffffff1614905090565b606060018054611f57906147e3565b80601f0160208091040260200160405190810160405280929190818152602001828054611f83906147e3565b8015611fd05780601f10611fa557610100808354040283529160200191611fd0565b820191906000526020600020905b815481529060010190602001808311611fb357829003601f168201915b5050505050905090565b611fec611fe5612a9d565b8383612e5a565b5050565b6000600860149054906101000a90046bffffffffffffffffffffffff166bffffffffffffffffffffffff16612710836120299190614e17565b6120339190614e48565b9050919050565b3373ffffffffffffffffffffffffffffffffffffffff166010600084815260200190815260200160002060009054906101000a900473ffffffffffffffffffffffffffffffffffffffff1673ffffffffffffffffffffffffffffffffffffffff16146120a557600080fd5b806018600084815260200190815260200160002090805190602001906120cc929190613bc1565b505050565b601a60205281600052604060002081815481106120ed57600080fd5b90600052602060002001600091509150508054612109906147e3565b80601f0160208091040260200160405190810160405280929190818152602001828054612135906147e3565b80156121825780601f1061215757610100808354040283529160200191612182565b820191906000526020600020905b81548152906001019060200180831161216557829003601f168201915b505050505081565b61219b612195612a9d565b83612b5e565b6121da576040517f08c379a00000000000000000000000000000000000000000000000000000000081526004016121d1906149ab565b60405180910390fd5b6121e684848484612fc7565b50505050565b600b60009054906101000a900460ff161561220657600080fd5b6000600a8260ff168154811061221f5761221e6149cb565b5b9060005260206000209060020201905060008160000160009054906101000a900473ffffffffffffffffffffffffffffffffffffffff169050600082600101549050600860009054906101000a900473ffffffffffffffffffffffffffffffffffffffff1673ffffffffffffffffffffffffffffffffffffffff163373ffffffffffffffffffffffffffffffffffffffff16146122f9578034146122f8576040517f08c379a00000000000000000000000000000000000000000000000000000000081526004016122ef90614c0e565b60405180910390fd5b5b8173ffffffffffffffffffffffffffffffffffffffff166323b872dd3330846040518463ffffffff1660e01b815260040161233693929190614c2e565b6020604051808303816000875af1158015612355573d6000803e3d6000fd5b505050506040513d601f19601f820116820180604052508101906123799190614a51565b506123846007613023565b60006123906007613039565b9050336010600083815260200190815260200160002060006101000a81548173ffffffffffffffffffffffffffffffffffffffff021916908373ffffffffffffffffffffffffffffffffffffffff1602179055508860186000838152602001908152602001600020908051906020019061240b929190613bc1565b5087601260008381526020019081526020016000209080519060200190612433929190613bc1565b508560176000838152602001908152602001600020908051906020019061245b929190613bc1565b5086601360008381526020019081526020016000209080519060200190612483929190613bc1565b5061248e3382613047565b7f9e55dcc1ebb4b32b970725415987c55850d46325fa3af75720b2927dc7d6f19233826124ba846124dc565b6040516124c993929190614ea2565b60405180910390a1505050505050505050565b60606124e782613221565b9050919050565b60106020528060005260406000206000915054906101000a900473ffffffffffffffffffffffffffffffffffffffff1681565b60176020528060005260406000206000915090508054612540906147e3565b80601f016020809104026020016040519081016040528092919081815260200182805461256c906147e3565b80156125b95780601f1061258e576101008083540402835291602001916125b9565b820191906000526020600020905b81548152906001019060200180831161259c57829003601f168201915b505050505081565b601360205280600052604060002060009150905080546125e0906147e3565b80601f016020809104026020016040519081016040528092919081815260200182805461260c906147e3565b80156126595780601f1061262e57610100808354040283529160200191612659565b820191906000526020600020905b81548152906001019060200180831161263c57829003601f168201915b505050505081565b60606126f3600f600e600d600c61269f600860149054906101000a90046bffffffffffffffffffffffff166bffffffffffffffffffffffff166133f8565b6126ca600960009054906101000a900473ffffffffffffffffffffffffffffffffffffffff16613559565b6040516020016126df969594939291906151c4565b604051602081830303815290604052613586565b60405160200161270391906152b5565b604051602081830303815290604052905090565b6000600560008473ffffffffffffffffffffffffffffffffffffffff1673ffffffffffffffffffffffffffffffffffffffff16815260200190815260200160002060008373ffffffffffffffffffffffffffffffffffffffff1673ffffffffffffffffffffffffffffffffffffffff16815260200190815260200160002060009054906101000a900460ff16905092915050565b6127b3611ef0565b6127bc57600080fd5b82600c90805190602001906127d2929190613bc1565b5081600e90805190602001906127e9929190613bc1565b5080600d9080519060200190612800929190613bc1565b50505050565b601b6020528060005260406000206000915054906101000a900473ffffffffffffffffffffffffffffffffffffffff1681565b3373ffffffffffffffffffffffffffffffffffffffff166010600084815260200190815260200160002060009054906101000a900473ffffffffffffffffffffffffffffffffffffffff1673ffffffffffffffffffffffffffffffffffffffff16146128a457600080fd5b806017600084815260200190815260200160002090805190602001906128cb929190613bc1565b505050565b601460205280600052604060002060009150905080546128ef906147e3565b80601f016020809104026020016040519081016040528092919081815260200182805461291b906147e3565b80156129685780601f1061293d57610100808354040283529160200191612968565b820191906000526020600020905b81548152906001019060200180831161294b57829003601f168201915b505050505081565b60007f80ac58cd000000000000000000000000000000000000000000000000000000007bffffffffffffffffffffffffffffffffffffffffffffffffffffffff1916827bffffffffffffffffffffffffffffffffffffffffffffffffffffffff19161480612a3b57507f5b5e139f000000000000000000000000000000000000000000000000000000007bffffffffffffffffffffffffffffffffffffffffffffffffffffffff1916827bffffffffffffffffffffffffffffffffffffffffffffffffffffffff1916145b80612a4b5750612a4a826136ea565b5b9050919050565b612a5b81613754565b612a9a576040517f08c379a0000000000000000000000000000000000000000000000000000000008152600401612a9190614d36565b60405180910390fd5b50565b600033905090565b816004600083815260200190815260200160002060006101000a81548173ffffffffffffffffffffffffffffffffffffffff021916908373ffffffffffffffffffffffffffffffffffffffff160217905550808273ffffffffffffffffffffffffffffffffffffffff16612b188361198e565b73ffffffffffffffffffffffffffffffffffffffff167f8c5be1e5ebec7d5bd14f71427d1e84f3dd0314c0f7b2291e5b200ac8c7c3b92560405160405180910390a45050565b600080612b6a8361198e565b90508073ffffffffffffffffffffffffffffffffffffffff168473ffffffffffffffffffffffffffffffffffffffff161480612bac5750612bab8185612717565b5b80612bea57508373ffffffffffffffffffffffffffffffffffffffff16612bd284610e7e565b73ffffffffffffffffffffffffffffffffffffffff16145b91505092915050565b8273ffffffffffffffffffffffffffffffffffffffff16612c138261198e565b73ffffffffffffffffffffffffffffffffffffffff1614612c69576040517f08c379a0000000000000000000000000000000000000000000000000000000008152600401612c6090615349565b60405180910390fd5b600073ffffffffffffffffffffffffffffffffffffffff168273ffffffffffffffffffffffffffffffffffffffff161415612cd9576040517f08c379a0000000000000000000000000000000000000000000000000000000008152600401612cd0906153db565b60405180910390fd5b612ce48383836137c0565b612cef600082612aa5565b6001600360008573ffffffffffffffffffffffffffffffffffffffff1673ffffffffffffffffffffffffffffffffffffffff1681526020019081526020016000206000828254612d3f91906153fb565b925050819055506001600360008473ffffffffffffffffffffffffffffffffffffffff1673ffffffffffffffffffffffffffffffffffffffff1681526020019081526020016000206000828254612d969190614c94565b92505081905550816002600083815260200190815260200160002060006101000a81548173ffffffffffffffffffffffffffffffffffffffff021916908373ffffffffffffffffffffffffffffffffffffffff160217905550808273ffffffffffffffffffffffffffffffffffffffff168473ffffffffffffffffffffffffffffffffffffffff167fddf252ad1be2c89b69c2b068fc378daa952ba7f163c4a11628f55a4df523b3ef60405160405180910390a4612e558383836137d0565b505050565b8173ffffffffffffffffffffffffffffffffffffffff168373ffffffffffffffffffffffffffffffffffffffff161415612ec9576040517f08c379a0000000000000000000000000000000000000000000000000000000008152600401612ec09061547b565b60405180910390fd5b80600560008573ffffffffffffffffffffffffffffffffffffffff1673ffffffffffffffffffffffffffffffffffffffff16815260200190815260200160002060008473ffffffffffffffffffffffffffffffffffffffff1673ffffffffffffffffffffffffffffffffffffffff16815260200190815260200160002060006101000a81548160ff0219169083151502179055508173ffffffffffffffffffffffffffffffffffffffff168373ffffffffffffffffffffffffffffffffffffffff167f17307eab39ab6107e8899845ad3d59bd9653f200f220920489ca2b5937696c3183604051612fba9190613ef0565b60405180910390a3505050565b612fd2848484612bf3565b612fde848484846137d5565b61301d576040517f08c379a00000000000000000000000000000000000000000000000000000000081526004016130149061550d565b60405180910390fd5b50505050565b6001816000016000828254019250508190555050565b600081600001549050919050565b600073ffffffffffffffffffffffffffffffffffffffff168273ffffffffffffffffffffffffffffffffffffffff1614156130b7576040517f08c379a00000000000000000000000000000000000000000000000000000000081526004016130ae90615579565b60405180910390fd5b6130c081613754565b15613100576040517f08c379a00000000000000000000000000000000000000000000000000000000081526004016130f7906155e5565b60405180910390fd5b61310c600083836137c0565b6001600360008473ffffffffffffffffffffffffffffffffffffffff1673ffffffffffffffffffffffffffffffffffffffff168152602001908152602001600020600082825461315c9190614c94565b92505081905550816002600083815260200190815260200160002060006101000a81548173ffffffffffffffffffffffffffffffffffffffff021916908373ffffffffffffffffffffffffffffffffffffffff160217905550808273ffffffffffffffffffffffffffffffffffffffff16600073ffffffffffffffffffffffffffffffffffffffff167fddf252ad1be2c89b69c2b068fc378daa952ba7f163c4a11628f55a4df523b3ef60405160405180910390a461321d600083836137d0565b5050565b606061322c82613754565b61326b576040517f08c379a000000000000000000000000000000000000000000000000000000000815260040161326290614b7c565b60405180910390fd5b600060186000848152602001908152602001600020805461328b906147e3565b80601f01602080910402602001604051908101604052809291908181526020018280546132b7906147e3565b80156133045780601f106132d957610100808354040283529160200191613304565b820191906000526020600020905b8154815290600101906020018083116132e757829003601f168201915b505050505090506133d160126000858152602001908152602001600020826015600087815260200190815260200160002060136000888152602001908152602001600020613364601160008a8152602001908152602001600020546133f8565b601460008a8152602001908152602001600020601760008b81526020019081526020016000206133a6601160008d8152602001908152602001600020546133f8565b6040516020016133bd9897969594939291906158d7565b604051602081830303815290604052613586565b6040516020016133e191906152b5565b604051602081830303815290604052915050919050565b60606000821415613440576040518060400160405280600181526020017f30000000000000000000000000000000000000000000000000000000000000008152509050613554565b600082905060005b6000821461347257808061345b906159c2565b915050600a8261346b9190614e17565b9150613448565b60008167ffffffffffffffff81111561348e5761348d613cc9565b5b6040519080825280601f01601f1916602001820160405280156134c05781602001600182028036833780820191505090505b5090505b6000851461354d576001826134d991906153fb565b9150600a856134e89190615a0b565b60306134f49190614c94565b60f81b81838151811061350a576135096149cb565b5b60200101907effffffffffffffffffffffffffffffffffffffffffffffffffffffffffffff1916908160001a905350600a856135469190614e17565b94506134c4565b8093505050505b919050565b606061357f8273ffffffffffffffffffffffffffffffffffffffff16601460ff1661395d565b9050919050565b60606000825114156135a9576040518060200160405280600081525090506136e5565b6000604051806060016040528060408152602001615bb660409139905060006003600285516135d89190614c94565b6135e29190614e17565b60046135ee9190614e48565b67ffffffffffffffff81111561360757613606613cc9565b5b6040519080825280601f01601f1916602001820160405280156136395781602001600182028036833780820191505090505b509050600182016020820185865187015b808210156136a5576003820191508151603f8160121c168501518453600184019350603f81600c1c168501518453600184019350603f8160061c168501518453600184019350603f811685015184536001840193505061364a565b50506003865106600181146136c157600281146136d4576136dc565b603d6001830353603d60028303536136dc565b603d60018303535b50505080925050505b919050565b60007f01ffc9a7000000000000000000000000000000000000000000000000000000007bffffffffffffffffffffffffffffffffffffffffffffffffffffffff1916827bffffffffffffffffffffffffffffffffffffffffffffffffffffffff1916149050919050565b60008073ffffffffffffffffffffffffffffffffffffffff166002600084815260200190815260200160002060009054906101000a900473ffffffffffffffffffffffffffffffffffffffff1673ffffffffffffffffffffffffffffffffffffffff1614159050919050565b6137cb838383613b99565b505050565b505050565b60006137f68473ffffffffffffffffffffffffffffffffffffffff16613b9e565b15613950578373ffffffffffffffffffffffffffffffffffffffff1663150b7a0261381f612a9d565b8786866040518563ffffffff1660e01b81526004016138419493929190615a91565b6020604051808303816000875af192505050801561387d57506040513d601f19601f8201168201806040525081019061387a9190615af2565b60015b613900573d80600081146138ad576040519150601f19603f3d011682016040523d82523d6000602084013e6138b2565b606091505b506000815114156138f8576040517f08c379a00000000000000000000000000000000000000000000000000000000081526004016138ef9061550d565b60405180910390fd5b805181602001fd5b63150b7a0260e01b7bffffffffffffffffffffffffffffffffffffffffffffffffffffffff1916817bffffffffffffffffffffffffffffffffffffffffffffffffffffffff191614915050613955565b600190505b949350505050565b6060600060028360026139709190614e48565b61397a9190614c94565b67ffffffffffffffff81111561399357613992613cc9565b5b6040519080825280601f01601f1916602001820160405280156139c55781602001600182028036833780820191505090505b5090507f3000000000000000000000000000000000000000000000000000000000000000816000815181106139fd576139fc6149cb565b5b60200101907effffffffffffffffffffffffffffffffffffffffffffffffffffffffffffff1916908160001a9053507f780000000000000000000000000000000000000000000000000000000000000081600181518110613a6157613a606149cb565b5b60200101907effffffffffffffffffffffffffffffffffffffffffffffffffffffffffffff1916908160001a90535060006001846002613aa19190614e48565b613aab9190614c94565b90505b6001811115613b4b577f3031323334353637383961626364656600000000000000000000000000000000600f861660108110613aed57613aec6149cb565b5b1a60f81b828281518110613b0457613b036149cb565b5b60200101907effffffffffffffffffffffffffffffffffffffffffffffffffffffffffffff1916908160001a905350600485901c945080613b4490615b1f565b9050613aae565b5060008414613b8f576040517f08c379a0000000000000000000000000000000000000000000000000000000008152600401613b8690615b95565b60405180910390fd5b8091505092915050565b505050565b6000808273ffffffffffffffffffffffffffffffffffffffff163b119050919050565b828054613bcd906147e3565b90600052602060002090601f016020900481019282613bef5760008555613c36565b82601f10613c0857805160ff1916838001178555613c36565b82800160010185558215613c36579182015b82811115613c35578251825591602001919060010190613c1a565b5b509050613c439190613c47565b5090565b5b80821115613c60576000816000905550600101613c48565b5090565b6000604051905090565b600080fd5b600080fd5b6000819050919050565b613c8b81613c78565b8114613c9657600080fd5b50565b600081359050613ca881613c82565b92915050565b600080fd5b600080fd5b6000601f19601f8301169050919050565b7f4e487b7100000000000000000000000000000000000000000000000000000000600052604160045260246000fd5b613d0182613cb8565b810181811067ffffffffffffffff82111715613d2057613d1f613cc9565b5b80604052505050565b6000613d33613c64565b9050613d3f8282613cf8565b919050565b600067ffffffffffffffff821115613d5f57613d5e613cc9565b5b613d6882613cb8565b9050602081019050919050565b82818337600083830152505050565b6000613d97613d9284613d44565b613d29565b905082815260208101848484011115613db357613db2613cb3565b5b613dbe848285613d75565b509392505050565b600082601f830112613ddb57613dda613cae565b5b8135613deb848260208601613d84565b91505092915050565b60008060408385031215613e0b57613e0a613c6e565b5b6000613e1985828601613c99565b925050602083013567ffffffffffffffff811115613e3a57613e39613c73565b5b613e4685828601613dc6565b9150509250929050565b60007fffffffff0000000000000000000000000000000000000000000000000000000082169050919050565b613e8581613e50565b8114613e9057600080fd5b50565b600081359050613ea281613e7c565b92915050565b600060208284031215613ebe57613ebd613c6e565b5b6000613ecc84828501613e93565b91505092915050565b60008115159050919050565b613eea81613ed5565b82525050565b6000602082019050613f056000830184613ee1565b92915050565b613f1481613ed5565b8114613f1f57600080fd5b50565b600081359050613f3181613f0b565b92915050565b600060208284031215613f4d57613f4c613c6e565b5b6000613f5b84828501613f22565b91505092915050565b600060208284031215613f7a57613f79613c6e565b5b6000613f8884828501613c99565b91505092915050565b600081519050919050565b600082825260208201905092915050565b60005b83811015613fcb578082015181840152602081019050613fb0565b83811115613fda576000848401525b50505050565b6000613feb82613f91565b613ff58185613f9c565b9350614005818560208601613fad565b61400e81613cb8565b840191505092915050565b600060208201905081810360008301526140338184613fe0565b905092915050565b600073ffffffffffffffffffffffffffffffffffffffff82169050919050565b60006140668261403b565b9050919050565b6140768161405b565b811461408157600080fd5b50565b6000813590506140938161406d565b92915050565b60006bffffffffffffffffffffffff82169050919050565b6140ba81614099565b81146140c557600080fd5b50565b6000813590506140d7816140b1565b92915050565b600080604083850312156140f4576140f3613c6e565b5b600061410285828601614084565b9250506020614113858286016140c8565b9150509250929050565b6141268161405b565b82525050565b6000602082019050614141600083018461411d565b92915050565b6000806040838503121561415e5761415d613c6e565b5b600061416c85828601614084565b925050602061417d85828601613c99565b9150509250929050565b60006020828403121561419d5761419c613c6e565b5b60006141ab84828501614084565b91505092915050565b6000806000606084860312156141cd576141cc613c6e565b5b60006141db86828701614084565b93505060206141ec86828701614084565b92505060406141fd86828701613c99565b9150509250925092565b6000819050919050565b600061422c6142276142228461403b565b614207565b61403b565b9050919050565b600061423e82614211565b9050919050565b600061425082614233565b9050919050565b61426081614245565b82525050565b61426f81613c78565b82525050565b600060408201905061428a6000830185614257565b6142976020830184614266565b9392505050565b600080604083850312156142b5576142b4613c6e565b5b60006142c385828601613c99565b92505060206142d485828601613c99565b9150509250929050565b60006040820190506142f3600083018561411d565b6143006020830184614266565b9392505050565b60006143128261403b565b9050919050565b61432281614307565b811461432d57600080fd5b50565b60008135905061433f81614319565b92915050565b600060ff82169050919050565b61435b81614345565b811461436657600080fd5b50565b60008135905061437881614352565b92915050565b6000806000806080858703121561439857614397613c6e565b5b60006143a687828801613c99565b94505060206143b787828801614330565b93505060406143c887828801613c99565b92505060606143d987828801614369565b91505092959194509250565b60006143f08261405b565b9050919050565b614400816143e5565b811461440b57600080fd5b50565b60008135905061441d816143f7565b92915050565b6000806040838503121561443a57614439613c6e565b5b60006144488582860161440e565b925050602061445985828601613c99565b9150509250929050565b60006020820190506144786000830184614266565b92915050565b6000806040838503121561449557614494613c6e565b5b60006144a385828601614084565b92505060206144b485828601613f22565b9150509250929050565b600067ffffffffffffffff8211156144d9576144d8613cc9565b5b6144e282613cb8565b9050602081019050919050565b60006145026144fd846144be565b613d29565b90508281526020810184848401111561451e5761451d613cb3565b5b614529848285613d75565b509392505050565b600082601f83011261454657614545613cae565b5b81356145568482602086016144ef565b91505092915050565b6000806000806080858703121561457957614578613c6e565b5b600061458787828801614084565b945050602061459887828801614084565b93505060406145a987828801613c99565b925050606085013567ffffffffffffffff8111156145ca576145c9613c73565b5b6145d687828801614531565b91505092959194509250565b600080600080600060a086880312156145fe576145fd613c6e565b5b600086013567ffffffffffffffff81111561461c5761461b613c73565b5b61462888828901613dc6565b955050602086013567ffffffffffffffff81111561464957614648613c73565b5b61465588828901613dc6565b945050604086013567ffffffffffffffff81111561467657614675613c73565b5b61468288828901613dc6565b935050606086013567ffffffffffffffff8111156146a3576146a2613c73565b5b6146af88828901613dc6565b92505060806146c088828901614369565b9150509295509295909350565b600080604083850312156146e4576146e3613c6e565b5b60006146f285828601614084565b925050602061470385828601614084565b9150509250929050565b60008060006060848603121561472657614725613c6e565b5b600084013567ffffffffffffffff81111561474457614743613c73565b5b61475086828701613dc6565b935050602084013567ffffffffffffffff81111561477157614770613c73565b5b61477d86828701613dc6565b925050604084013567ffffffffffffffff81111561479e5761479d613c73565b5b6147aa86828701613dc6565b9150509250925092565b7f4e487b7100000000000000000000000000000000000000000000000000000000600052602260045260246000fd5b600060028204905060018216806147fb57607f821691505b6020821081141561480f5761480e6147b4565b5b50919050565b7f4552433732313a20617070726f76616c20746f2063757272656e74206f776e6560008201527f7200000000000000000000000000000000000000000000000000000000000000602082015250565b6000614871602183613f9c565b915061487c82614815565b604082019050919050565b600060208201905081810360008301526148a081614864565b9050919050565b7f4552433732313a20617070726f76652063616c6c6572206973206e6f7420746f60008201527f6b656e206f776e6572206e6f7220617070726f76656420666f7220616c6c0000602082015250565b6000614903603e83613f9c565b915061490e826148a7565b604082019050919050565b60006020820190508181036000830152614932816148f6565b9050919050565b7f4552433732313a2063616c6c6572206973206e6f7420746f6b656e206f776e6560008201527f72206e6f7220617070726f766564000000000000000000000000000000000000602082015250565b6000614995602e83613f9c565b91506149a082614939565b604082019050919050565b600060208201905081810360008301526149c481614988565b9050919050565b7f4e487b7100000000000000000000000000000000000000000000000000000000600052603260045260246000fd5b600081519050614a0981613c82565b92915050565b600060208284031215614a2557614a24613c6e565b5b6000614a33848285016149fa565b91505092915050565b600081519050614a4b81613f0b565b92915050565b600060208284031215614a6757614a66613c6e565b5b6000614a7584828501614a3c565b91505092915050565b600081905092915050565b50565b6000614a99600083614a7e565b9150614aa482614a89565b600082019050919050565b6000614aba82614a8c565b9150819050919050565b7f4661696c65642e00000000000000000000000000000000000000000000000000600082015250565b6000614afa600783613f9c565b9150614b0582614ac4565b602082019050919050565b60006020820190508181036000830152614b2981614aed565b9050919050565b7f4e6f6e2d4578697374656e7420546f6b656e0000000000000000000000000000600082015250565b6000614b66601283613f9c565b9150614b7182614b30565b602082019050919050565b60006020820190508181036000830152614b9581614b59565b9050919050565b7f4e6f7420656e6f7567682062616c616e636520746f20636f6d706c657465207460008201527f72616e73616374696f6e2e000000000000000000000000000000000000000000602082015250565b6000614bf8602b83613f9c565b9150614c0382614b9c565b604082019050919050565b60006020820190508181036000830152614c2781614beb565b9050919050565b6000606082019050614c43600083018661411d565b614c50602083018561411d565b614c5d6040830184614266565b949350505050565b7f4e487b7100000000000000000000000000000000000000000000000000000000600052601160045260246000fd5b6000614c9f82613c78565b9150614caa83613c78565b9250827fffffffffffffffffffffffffffffffffffffffffffffffffffffffffffffffff03821115614cdf57614cde614c65565b5b828201905092915050565b7f4552433732313a20696e76616c696420746f6b656e2049440000000000000000600082015250565b6000614d20601883613f9c565b9150614d2b82614cea565b602082019050919050565b60006020820190508181036000830152614d4f81614d13565b9050919050565b7f4552433732313a2061646472657373207a65726f206973206e6f74206120766160008201527f6c6964206f776e65720000000000000000000000000000000000000000000000602082015250565b6000614db2602983613f9c565b9150614dbd82614d56565b604082019050919050565b60006020820190508181036000830152614de181614da5565b9050919050565b7f4e487b7100000000000000000000000000000000000000000000000000000000600052601260045260246000fd5b6000614e2282613c78565b9150614e2d83613c78565b925082614e3d57614e3c614de8565b5b828204905092915050565b6000614e5382613c78565b9150614e5e83613c78565b9250817fffffffffffffffffffffffffffffffffffffffffffffffffffffffffffffffff0483118215151615614e9757614e96614c65565b5b828202905092915050565b6000606082019050614eb7600083018661411d565b614ec46020830185614266565b8181036040830152614ed68184613fe0565b9050949350505050565b600081905092915050565b7f7b226e616d65223a202200000000000000000000000000000000000000000000600082015250565b6000614f21600a83614ee0565b9150614f2c82614eeb565b600a82019050919050565b60008190508160005260206000209050919050565b60008154614f59816147e3565b614f638186614ee0565b94506001821660008114614f7e5760018114614f8f57614fc2565b60ff19831686528186019350614fc2565b614f9885614f37565b60005b83811015614fba57815481890152600182019150602081019050614f9b565b838801955050505b50505092915050565b7f222c2022696d616765223a202200000000000000000000000000000000000000600082015250565b6000615001600d83614ee0565b915061500c82614fcb565b600d82019050919050565b7f222c20226465736372697074696f6e223a202200000000000000000000000000600082015250565b600061504d601383614ee0565b915061505882615017565b601382019050919050565b7f222c202265787465726e616c5f6c696e6b223a20220000000000000000000000600082015250565b6000615099601583614ee0565b91506150a482615063565b601582019050919050565b7f22202c202273656c6c65725f6665655f62617369735f706f696e7473223a2022600082015250565b60006150e5602083614ee0565b91506150f0826150af565b602082019050919050565b600061510682613f91565b6151108185614ee0565b9350615120818560208601613fad565b80840191505092915050565b7f222c20226665655f726563697069656e74223a20220000000000000000000000600082015250565b6000615162601583614ee0565b915061516d8261512c565b601582019050919050565b7f227d000000000000000000000000000000000000000000000000000000000000600082015250565b60006151ae600283614ee0565b91506151b982615178565b600282019050919050565b60006151cf82614f14565b91506151db8289614f4c565b91506151e682614ff4565b91506151f28288614f4c565b91506151fd82615040565b91506152098287614f4c565b91506152148261508c565b91506152208286614f4c565b915061522b826150d8565b915061523782856150fb565b915061524282615155565b915061524e82846150fb565b9150615259826151a1565b9150819050979650505050505050565b7f646174613a6170706c69636174696f6e2f6a736f6e3b6261736536342c000000600082015250565b600061529f601d83614ee0565b91506152aa82615269565b601d82019050919050565b60006152c082615292565b91506152cc82846150fb565b915081905092915050565b7f4552433732313a207472616e736665722066726f6d20696e636f72726563742060008201527f6f776e6572000000000000000000000000000000000000000000000000000000602082015250565b6000615333602583613f9c565b915061533e826152d7565b604082019050919050565b6000602082019050818103600083015261536281615326565b9050919050565b7f4552433732313a207472616e7366657220746f20746865207a65726f2061646460008201527f7265737300000000000000000000000000000000000000000000000000000000602082015250565b60006153c5602483613f9c565b91506153d082615369565b604082019050919050565b600060208201905081810360008301526153f4816153b8565b9050919050565b600061540682613c78565b915061541183613c78565b92508282101561542457615423614c65565b5b828203905092915050565b7f4552433732313a20617070726f766520746f2063616c6c657200000000000000600082015250565b6000615465601983613f9c565b91506154708261542f565b602082019050919050565b6000602082019050818103600083015261549481615458565b9050919050565b7f4552433732313a207472616e7366657220746f206e6f6e20455243373231526560008201527f63656976657220696d706c656d656e7465720000000000000000000000000000602082015250565b60006154f7603283613f9c565b91506155028261549b565b604082019050919050565b60006020820190508181036000830152615526816154ea565b9050919050565b7f4552433732313a206d696e7420746f20746865207a65726f2061646472657373600082015250565b6000615563602083613f9c565b915061556e8261552d565b602082019050919050565b6000602082019050818103600083015261559281615556565b9050919050565b7f4552433732313a20746f6b656e20616c7265616479206d696e74656400000000600082015250565b60006155cf601c83613f9c565b91506155da82615599565b602082019050919050565b600060208201905081810360008301526155fe816155c2565b9050919050565b7f222c2022616e696d6174696f6e5f75726c223a20220000000000000000000000600082015250565b600061563b601583614ee0565b915061564682615605565b601582019050919050565b7f202d200000000000000000000000000000000000000000000000000000000000600082015250565b6000615687600383614ee0565b915061569282615651565b600382019050919050565b7ff09fa49d00000000000000000000000000000000000000000000000000000000600082015250565b60006156d3600483614ee0565b91506156de8261569d565b600482019050919050565b7f222c202261747472696275746573223a205b2000000000000000000000000000600082015250565b600061571f601383614ee0565b915061572a826156e9565b601382019050919050565b7f7b202274726169745f74797065223a2022436f6c6c656374696f6e222c20227660008201527f616c7565223a2022000000000000000000000000000000000000000000000000602082015250565b6000615791602883614ee0565b915061579c82615735565b602882019050919050565b7f227d2c207b202274726169745f74797065223a2022417274697374222c20227660008201527f616c7565223a2022000000000000000000000000000000000000000000000000602082015250565b6000615803602883614ee0565b915061580e826157a7565b602882019050919050565b7f227d2c207b202274726169745f74797065223a2022537570706f727473222c2060008201527f2276616c7565223a202200000000000000000000000000000000000000000000602082015250565b6000615875602a83614ee0565b915061588082615819565b602a82019050919050565b7f227d205d207d0000000000000000000000000000000000000000000000000000600082015250565b60006158c1600683614ee0565b91506158cc8261588b565b600682019050919050565b60006158e282614f14565b91506158ee828b614f4c565b91506158f982614ff4565b9150615905828a6150fb565b91506159108261562e565b915061591c8289614f4c565b915061592782615040565b91506159338288614f4c565b915061593e8261567a565b915061594a82876150fb565b9150615955826156c6565b915061596082615712565b915061596b82615784565b91506159778286614f4c565b9150615982826157f6565b915061598e8285614f4c565b915061599982615868565b91506159a582846150fb565b91506159b0826158b4565b91508190509998505050505050505050565b60006159cd82613c78565b91507fffffffffffffffffffffffffffffffffffffffffffffffffffffffffffffffff821415615a00576159ff614c65565b5b600182019050919050565b6000615a1682613c78565b9150615a2183613c78565b925082615a3157615a30614de8565b5b828206905092915050565b600081519050919050565b600082825260208201905092915050565b6000615a6382615a3c565b615a6d8185615a47565b9350615a7d818560208601613fad565b615a8681613cb8565b840191505092915050565b6000608082019050615aa6600083018761411d565b615ab3602083018661411d565b615ac06040830185614266565b8181036060830152615ad28184615a58565b905095945050505050565b600081519050615aec81613e7c565b92915050565b600060208284031215615b0857615b07613c6e565b5b6000615b1684828501615add565b91505092915050565b6000615b2a82613c78565b91506000821415615b3e57615b3d614c65565b5b600182039050919050565b7f537472696e67733a20686578206c656e67746820696e73756666696369656e74600082015250565b6000615b7f602083613f9c565b9150615b8a82615b49565b602082019050919050565b60006020820190508181036000830152615bae81615b72565b905091905056fe4142434445464748494a4b4c4d4e4f505152535455565758595a6162636465666768696a6b6c6d6e6f707172737475767778797a303132333435363738392b2fa2646970667358221220a8e2b02acf5f21c8fd518d79742819072209b349e9ad41e53146be4dbf98461564736f6c634300080a003368747470733a2f2f6261666b7265696432717a6f686b676878353337776a66763533687433706a75693271756b75366a686764666f79756632363561786e717a7965342e697066732e6e667473746f726167652e6c696e6b2f",
  "linkReferences": {},
  "deployedLinkReferences": {}
}